:020000041000EA
:1000000000B5324B212058609868022188439860DF
:10001000D860186158612E4B002199600221596106
:100020000121F02299502B49196001219960352056
:1000300000F044F80222904214D00621196600F024
:1000400034F8196E01211966002018661A6600F04E
:100050002CF8196E196E196E052000F02FF8012189
:100060000842F9D1002199601B49196000215960AB
:100070001A491B48016001219960EB211966A021F2
:10008000196600F012F800219960164914480160C1
:100090000121996001BC002800D000471248134993
:1000A000086003C880F30888084703B5996A0420EC
:1000B0000142FBD001200142F8D103BD02B5186610
:1000C0001866FFF7F2FF186E186E02BD00000240BE
:1000D000000000180000070000035F00212200005C
:1000E000F4000018222000A00001001008ED00E03C
:1000F00000000000000000000000000074B24E7A12
:1001000000200420F7010010C3010010C5010010F9
:10011000C1010010C1010010C1010010C101001097
:10012000C1010010C1010010C1010010C572001012
:10013000C1010010C101001021730010657300108F
:10014000CD010010CD010010CD010010CD01001037
:10015000CD010010CD010010CD010010CD01001027
:10016000CD010010CD010010CD010010CD01001017
:10017000CD010010CD010010CD010010CD01001007
:10018000CD010010CD010010CD010010CD010010F7
:10019000CD010010CD010010CD010010CD010010E7
:1001A000CD010010CD010010CD010010CD010010D7
:1001B000CD010010CD010010CD010010CD010010C7
:1001C00000BE00BE00BE00BE00BE00BE00F04BF888
:1001D000103800BEF2EB8871F08500102086001008
:1001E0003402001090A31AE700202149086006C8D5
:1001F00081F3088810471F48006800282FD10DA4FC
:100200000ECC002902D000F012F8F9E71A491B4A77
:10021000002000E001C19142FCD1194988471949E9
:1002200088471949884700BEFDE701C901C29A42C3
:10023000FBD3704720860010C0000020B40B0020C4
:1002400014910010000004200000042014910010FC
:1002500000100420001004200000000070470B482C
:1002600001F0E2FC0047EFF30580C0B270470000E8
:1002700008ED00E0000000D0B80B0020801800203E
:10028000C516001025040010E9170010575600008D
:1002900006005250ABB36053348300100600525036
:1002A000861C030244830010060052505422A29D73
:1002B0004C83001005005250DE65F4681491001064
:1002C000F8B5C0460448054B10B5834203D0044B33
:1002D000002B00D0984710BDB40B0020B40B0020B9
:1002E0000000000006480749091A8B10C90FC918F9
:1002F00010B5491003D0044B002B00D0984710BD17
:10030000B40B0020B40B00200000000010B5074C17
:100310002378002B09D1FFF7D5FF054B002B02D026
:10032000044800E000BF0123237010BD080F002027
:100330000000000068820010054B10B5002B03D0B0
:100340000449054800E000BFFFF7CCFF10BDC046E0
:10035000000000000C0F002068820010F0B583B090
:100360006B469C1D0023FF250C4E0D4F2380300053
:1003700007F086F82080A8420CD00023002221003C
:10038000386804F0BBF93000258807F079F8208040
:10039000A842F2D10A2005F0B3FFE8E748020020A6
:1003A0003C18002030B58BB06B460F4D9C1D0A22C7
:1003B0002100286804F0F0FB012811D1208807F003
:1003C00015FA0A2202A9208807F086FA02A807F087
:1003D0009FF90A222100286804F0DEFB0128EDD0F5
:1003E0000A2005F08DFFE2E73C18002010B502F06E
:1003F0008DFD002005F084FFF9E7C04670B5D026DA
:1004000080253606AD0407F001FA0A21756101F076
:100410003DFC040005F074FF2000B56105F070FF9D
:10042000F1E7C04610B582B001F0A8FE204807F001
:1004300057F907F09BF907F0B5F9192000F07CF89F
:10044000D02380221B0692045A620221002202203D
:1004500004F008F9174B0024186080220A2316497B
:100460000093D20000231548019405F097FA0B235E
:10047000802213490093D20000231248019405F012
:100480008DFA0F23802210490093520000230F4859
:10049000019405F083FA0C2380220D490093520049
:1004A00000230C48019405F079FA05F089FDFEE778
:1004B000480200203C180020688200105D030010F4
:1004C00080820010A503001098820010ED03001038
:1004D000A4820010FD030010094A830094464022C4
:1004E000634410B51C68C0006240C02414408022E0
:1004F000520113431C60034B9C466044416010BD95
:1005000004C00140004001400A4B80009C46042387
:100510006044002901D00C230821002A00D10B00DF
:10052000026853400C221A4080235B01184302608A
:100530007047C04604C001400123D0228340120608
:1005400093629361094A8300944640226344196888
:10055000C0004A40C021114080225201134319605B
:10056000034B9C46052360444360704704C0014030
:100570000040014070B5EFF3108C72B60D4D2B6842
:10058000002BFCD0BFF35F8F0724CB08C618C05CDC
:1005900001230C40A3401C000440034207D1034345
:1005A0003370BFF35F8F2C608CF3108870BD100028
:1005B00001F01CF92C0100D0F8B54746CE4688461C
:1005C00080B5EFF3108C72B6214D2C68002CFCD056
:1005D000BFF35F8F9A422CD8D4080727055D061910
:1005E00001241740BC402C421FD007210127894617
:1005F00009E0D408055D06194C4639001440A140B5
:100600000C00294211D001329342F2D20120404223
:10061000BFF35F8F00220E4B1A608CF31088002806
:100620000FDBC0BCB946B046F8BD2C431000347097
:10063000EEE7BFF35F8F00232B608CF3108801205F
:1006400040424346002BECD0089801F0CFF8C0465A
:100650002C0100D0024B18688007C00F7047C046BD
:1006600000C006400021044B044ABFF35F8F02C361
:100670009342FAD17047C046000100D0800100D0FB
:10068000044A1078431CDBB2172B00D910231370D7
:100690007047C0465802002000B5054B83B00100EA
:1006A000009318221F230348FFF786FF03B000BD05
:1006B000AC820010C013002001238340002904D025
:1006C000034A1360034A13607047034A1360FBE751
:1006D00080E200E000E100E080E100E0024B103049
:1006E0009B688000C058704700ED00E070B50D00B9
:1006F000EFF3108672B60F4A1368002BFCD0BFF3DD
:100700005F8F0D4B10309B6884001B590B4A93423E
:1007100003D09D4201D001F081F8074B9B681D5129
:10072000BFF35F8FBFF35F8F0022024B1A6086F327
:10073000108870BD240100D000ED00E0CD01001054
:10074000F0B5DE4657464E464546E0B50C0083B050
:10075000EFF3108A72B65A4A1368002BFCD0BFF32D
:100760005F8F1022914681444A46564B96009B6803
:100770009D59554B98469D4205D0A54216D0534FE2
:10078000EB1B2F2B14D94F4B9B689D51BFF35F8FF1
:10079000BFF35F8F00224A4B1A608AF3108803B0C0
:1007A000F0BCBB46B246A946A046F0BD1D00EAE734
:1007B000012383409B465A46454B1B681A400092D2
:1007C0005A46444B1A60BFF35F8FFFF74CFD019010
:1007D000002803D0814501D001F020F801232A0030
:1007E0009A4393689C4208D15FE04B005B189B00E2
:1007F000FB189968A14211D01A0006215156002910
:10080000F3DA009B002B05D05A46334B1A60304B6D
:100810001A60B8E75A462F4B1A60B4E706215956BA
:10082000002921DB4A00501880003C188046A0684F
:100830009860E079D871062020569871002824DB52
:10084000A488F81A6405241544440019E02400051E
:10085000400D2402204398805218204B9200BF186C
:100860001A781970BA71CCE70199002910D1FF31BB
:1008700091711B49918019490A789A71194ADB1BB9
:100880005B415A43120D0A70BBE7BD200002E2E74C
:10089000154A1649D21A083A5002400D0143998070
:1008A000134952080A43DA80ABE706215156130078
:1008B0000029B7DA019A002AEAD14546DBE7C046AB
:1008C000240100D000ED00E0CD0100105C0200200A
:1008D00000E100E080E100E080E200E07B18002021
:1008E00000BDFFFFAAAA00009602002000F0FFFF53
:1008F00000F8FFFFF8B5012504000543FFF7B3FC3E
:10090000EFF3108C72B6214A1368002BFCD0BFF3B2
:100910005F8F1F4E2100B7681E4A1F4B891A49413D
:100920004B431B0D59B28300F858A8421CD0062334
:10093000D3568B421CD01223D3568B4222D01E2377
:10094000D3568B4220D02A23D35603208B4210D07B
:10095000124B1A781970A271BFF35F8F00220B4BF4
:100960001A608CF31088F8BDB2680D48D050EFE7DC
:10097000002043001B189B00D218FF239371094BE2
:100980009380E5E70120F4E70220F2E7240100D09C
:1009900000ED00E05C020020AAAA00007B18002005
:1009A000CD01001000BDFFFF054B064A1360064A4B
:1009B000136053609360D360136153619361704718
:1009C0008080808000E400E004E400E0024B9C466C
:1009D00061448900016070474000003483680B481F
:1009E00010B5844661446244090112019A185918ED
:1009F00054684B6801209C4201D802D00020C0B24C
:100A000010BD12680B689A42F9D8F7E7FFFFFF0F95
:100A10000A4B1968EFF3108072B60A68002AFCD0FE
:100A2000BFF35F8F1B68BFF35F8F00221A6080F3F4
:100A3000108840BF002000217047C0465818002091
:100A4000F8B557464E464546DE46E0B599460CABEE
:100A50001C780DAB1B78060090469A460768002C60
:100A600011D1BC7B002C42D065003B682D19033DA1
:100A700059194B78BB73002B00D1FB7300238B708B
:100A80004B700B7004E065003B682D19033D59194C
:100A9000B2682A4B94464246E3181B0163441A602D
:100AA0004A465A600A9A9A600B9ADA6000238B7061
:100AB0004B700B707B7B9B46002B2BD02200594642
:100AC000B8687B6898473A68002816D05B46584655
:100AD0005B005B445519033BA870D118D35C002B15
:100AE00000D06B705B460C707B73A34513D0F0BCD9
:100AF000BB46B246A946A046F8BD5B465B005B44D8
:100B0000033BD3189C705119525D002A00D05A70D3
:100B10005B460B707C7342464B46307D00F0D6FA44
:100B2000051E06D05346002B03D12100306800F08B
:100B3000EFFC0E9B002BDAD01D70D8E7FFFFFF0FF4
:100B4000F0B5DE464E46574645460023E0B58DB02B
:100B50000A936B4B8200D3580B90994600239B4617
:100B60004B46079300F062FA079C06000F0062688C
:100B7000EFF3108572B61368002BFCD022000794A7
:100B8000BFF35F8F2468637B9946002B67D0926820
:100B90005C4B90464B441B01984443461A685B6883
:100BA00010001900801BB94100295FDD0B9800F08F
:100BB0008DFA00230026984600279A46079C636812
:100BC000BFF35F8F5A461A6085F310885346002B97
:100BD00008D10028C6D10DB0F0BCBB46B246A9462C
:100BE000A046F0BD0A9B414618024B461843D04729
:100BF000089009916268EFF3108572B61368002BB4
:100C0000FCD00794BFF35F8F0899099A002A48DB4C
:100C1000114303D0079B1B69002B5DD1079B1B6809
:100C2000D97B002907D04A00521819688C464946DA
:100C30006244033A51704A46DA734B46079A013BC5
:100C4000D168CA5C0132CA545B46079A1361536883
:100C5000BFF35F8F5A461A6085F3108882E700233E
:100C60000026984600279A460020A7E7002901D1D0
:100C700000289BD10021200000F0CCFB43461E68D9
:100C80005F689B68079A9A464346DB689846D36834
:100C90004B44013B1B780A931B0203431361002062
:100CA0008CE72369002BB9D033003C005B1A9441D8
:100CB0001A002300A74219D89F421BD0594604911D
:100CC00001210391494602914146019151460798FD
:100CD0000091FFF7B5FEB7E700F0A8F9089A099B65
:100CE00006000F0092197B419942E5D90122524238
:100CF000D317E3E79642E1D901225242D317DDE749
:100D000044180020FFFFFF0FF8B557464E464546F2
:100D1000DE46E0B5404D81468A466A68EFF31088AA
:100D200072B61368002BFCD0BFF35F8F2E68B47BC4
:100D3000002C39D0670033683F19033FDB195A781C
:100D4000B273002A00D1F273A968344A8C4649462E
:100D5000A2181201624411605146516030499160FD
:100D60000021D160997059701970737B9B46002BDC
:100D700035D022001900B06873689847326800289F
:100D800020D05B4658465B005B44D719033BB870E4
:100D9000D118D35C002B00D07B705B460C70737352
:100DA0005C451DD0002626E06B68BFF35F8F1C609A
:100DB00088F3108801204042F0BCBB46B246A946E9
:100DC000A046F8BD5B465B005B44033BD3189C70B8
:100DD000D119D25D002A00D05A705B460B70747333
:100DE0004A465346287D00F071F9061EDAD02100EC
:100DF000286800F08DFBEB681B19013B19786B68C4
:100E0000BFF35F8F00221A6088F310880020002E45
:100E1000D2D108022043CFE7A4020020FFFFFF0F3A
:100E2000110A001010B5124C6368002B04D00A217F
:100E30001048FFF7CBFD10BD23000F4A102120689A
:100E400000F006FA032000F0E5F8032000F0AEF908
:100E500003200A4900F0F4F8FFF712FC084B9C4607
:100E6000032360442375074B80006060DC60DEE78D
:100E7000A402002058180020DD090010410B0010CA
:100E80004000003444180020F8B5CE46474680B5EF
:100E900006000C00FFF738FF00280CDC2D4B00206B
:100EA000596A8C4203D89B6A0130B34245D3C0BC17
:100EB000B946B046F8BD20BF274D6A68EFF31087EA
:100EC00072B61368002BFCD0BFF35F8F2B68C1B2E2
:100ED0009C465B7B8B4235D0FF2303405A009146F2
:100EE00062461268994490464A464244033A9278D0
:100EF000002A1DD0EA68000A90464344013B1B7853
:100F0000C0B2834221D06B68BFF35F8F00221A60AA
:100F100087F310880F4A0020536A9C42C7D8926A10
:100F20000130B242C3D2E01A421E9041C0B2BEE7C5
:100F30002B699842E7D12A61E5E7601A431E984180
:100F4000C0B2B4E7FF230340D4E7604600F0E0FA04
:100F5000D9E7C04600400540A4020020F0B5D646BF
:100F60004F464646C0B5EFF305833F2213401800B5
:100F70001038EFF3108C72B6204D2A68002AFCD08E
:100F8000BFF35F8F0122110081401D4C88466163D1
:100F90001C4917000E788A463100C1400F400A42B2
:100FA00009D1BFF35F8F2F608CF31088E0BCBA4685
:100FB000B146A846F0BD14498200646A51588C427B
:100FC0000FD3124BD25843469E4353461E70BFF375
:100FD0005F8F00232B608CF31088002AE6D09047A7
:100FE000E4E70B4A9B00904643441A681A60BFF33B
:100FF0005F8F00232B608CF31088D7E7280100D087
:10100000004005407C1800205C180020B013002030
:10101000D03F054010B50100024A0348FFF7AAFA85
:1010200010BDC046C88200107A180020034B596AD0
:101030000A00986A596A8A42FAD17047004005400E
:1010400070B504000D00EFF3108672B61A4A1368EB
:10105000002BFCD0BFF35F8F002D1BD02000FFF7CB
:101060003DFB164981420AD02000FFF73FFB0121DA
:101070002000FFF721FB0123A340114A1360114B0D
:10108000A400E550BFF35F8F00220B4B1A6086F37C
:10109000108870BD0B4BA200D5500122A2400A4916
:1010A00020000B7893430B700449FFF749FB0021A4
:1010B0002000FFF701FBE5E7280100D05D0F0010DD
:1010C00038600540B01300207C180020F0B54F4672
:1010D000D6464646C0B507002F4C616A0D00A66A89
:1010E000616AA942FAD18B4208D805D00120E0BC40
:1010F000BA46B146A846F0BDB242F7D9EFF3108A1E
:1011000072B6264801680029FCD0BFF35F8F012525
:10111000BD402349204C8846097889462943C9B2F5
:101120008C46414660460870391D1E48890065633B
:101130000A51B9000B50216A0020294219D0616A76
:101140000800A66A616A8142FAD18B4219D801D19E
:10115000B24216D8CC451DD00F4B1F201D625D63D7
:1011600001230740BB40104A1E38136043464A46DD
:101170001A70BFF35F8F0022084B1A608AF3108841
:10118000B5E70020BFF35F8F0022044B1A608AF39B
:101190001088ACE70120ECE700400540280100D0B2
:1011A0007C1800205C18002080E200E0EFF3108C37
:1011B00072B60A490B68002BFCD0BFF35F8F012386
:1011C0008340074A0748136202789A430270BFF3CC
:1011D0005F8F00230B608CF310887047280100D0CC
:1011E000004005407C18002070B505001400160072
:1011F000002915D00C00002A12D080686B6898472F
:10120000296800280ED073009B196200033B121955
:10121000CB18033A9C7088188A5C002A15D1067096
:10122000200070BD63001B197200033B9219CB189C
:10123000033A9E7088188A5C002A02D10470340038
:10124000EEE75A7004703400EAE75A700670E7E778
:1012500030B583600023CCB2437301330473426022
:101260008373C4730D000068012C06D9421C01333E
:10127000DBB2137003329C42F9D1FF2129404B00AD
:101280005918002340180338437030BDF8B5CE46D6
:10129000474606000C0080B5002907D04D000368C2
:1012A0006D18033D5A195778002F04D12000C0BC97
:1012B000B946B046F8BD7900C91903398846434498
:1012C0005978894600215970517073683A0021009D
:1012D000806898473368002814D042469A18947062
:1012E00059195B5D002B00D053700F7027004946E1
:1012F0003000FFF7CBFF390002003000FFF774FF2A
:101300000400D3E7424641465D19AF709A185B5C12
:10131000002B00D06B701470E9E7C046F0B557465B
:101320004546DE464E46E0B50D006B0001685B1990
:10133000DF1E0400C85D83B00192CA1900284CD09A
:1013400043001B18033BCB185E78B446002E16D121
:10135000019E002E3ED0E67B002E04D073009B1928
:10136000CB18033B5D70E57300282FD10023537029
:1013700003B0F0BCBB46B246A946A046F0BD720021
:101380006244033A89184A78904600224A7091468E
:101390005A70010032002000FFF726FF43468246C4
:1013A000002B07D05B0021684344033BCB185A78DD
:1013B000002A16D1424651462000FFF715FF21684A
:1013C000019BCA19002BC6D10028CFD043001B189F
:1013D000033BCB1800219970C8E7019B002BBAD1C1
:1013E000C4E75000801803380918487883464846F7
:1013F0004870587041462000FFF7F6FE5946804677
:101400002000FFF743FF414602002000FFF7ECFEFB
:101410008046CFE7F0B557464546DE464E46E0B536
:1014200083B00191457B04006B0000685B19DF1EEF
:10143000C15DC21900294ED04B005B18033BC31895
:101440005E78B446002E18D1019E002E40D0E67B77
:10145000002E04D073009B19C318033B5D70E57325
:10146000002931D1002328005370617303B0F0BC10
:10147000BB46B246A946A046F0BD72006244033A9C
:101480008018427890460022427091465A7020009F
:101490003200FFF7A9FE43468246002B07D05B00CF
:1014A00021684344033BCB185A78002A17D142469F
:1014B00051462000FFF798FE019B01002068C219E9
:1014C000002BC4D10029CDD04B005B18033BC318BF
:1014D00000209870C6E7019B002BB8D1C2E75000EE
:1014E0008018033809184878834648464870587071
:1014F00041462000FFF778FE594680462000FFF75E
:10150000C5FE414602002000FFF76EFE8046CEE792
:1015100070B5040000292CD0437B8B422ED0056887
:1015200048004018033828188278002A21D0530038
:101530009B18033BEA5CEE188A4202D11BE0002AAA
:1015400008D053009B18033BEB185A788A42F6D117
:1015500042785A7000230122837043702000FFF705
:10156000DDFE617B02002000FFF73EFE607301207C
:1015700000E0002070BD43783370EBE701221900D2
:10158000FFF7CCFE60730120F4E7C04610B50400FD
:10159000FFF776F801002000FFF718FAFF23237108
:1015A000BFF35F8F10BDC04610B50400FFF768F8A9
:1015B00001002000FFF70AFAFF23A380BFF35F8F2B
:1015C00010BDC04610B504000120FFF765F8044BBC
:1015D0009C46604480002060BFF35F8F10BDC04612
:1015E00040000034F8B5040006200D0000F07AFA3F
:1015F000002844D02A4B2B49E21853425A418023F9
:10160000DB039C469205284B62441A60274B1A6004
:1016100010008B689843FBD1214B8021E3185A427C
:101620005341234A5B0049009952062000F05AFAC0
:101630002900C00000F02AFBC30921D14027012165
:10164000260080256162A36200232C36AD0135435C
:101650002B60062000F046FA3900800000F016FBEF
:101660006023E26A53406E221A4080235B013343B9
:101670001A60104B236310232B600D3BA364F8BD4D
:101680000D4A934203D900230C4F0D49D8E77F221E
:101690001040013040089F0119003F180300CFE7B8
:1016A0000080FCBF00C0004000E0004000F00040AF
:1016B0006C18002001030000FEFF0000C0FF3F0087
:1016C000FFFF00002C4B2D4A70B51A602C4A2D4BA1
:1016D0002D491A6014008B689C43FBD12B4D2C4E76
:1016E000B54208D2013E761BB60808CD98472300C4
:1016F0000134B342F9D100F097F8264A214B1A6021
:10170000214A9368DB43DB01DD09002BF9D140223C
:10171000214B224C224E9A675A671A67DA66B44206
:1017200008D223682000002B20D00834FFF73CFFAC
:10173000B442F6D31B4E1C4CC022A168300000F00E
:10174000B1FBA660FEF78EFFFFF72EF9FFF76AFBED
:10175000164C174EB44208D2013E361BB60808CCD0
:1017600098472B0001359E42F9D170BD0834FFF730
:101770000DFFB442D5D3DDE700E00040BFCDFBFE56
:10178000FE7F3C0000F0004000C00040A00B0020A5
:10179000B00B0020FFFFFF0100F00140980B00207C
:1017A000A00B00200000002000ED00E0B00B0020A6
:1017B000B40B0020094A03001068002805D008492E
:1017C000C3188B4207D81360704706480449C318F2
:1017D00010608B42F7D901204042F5E73414002015
:1017E000000004208018002000BEFDE70FB400B503
:1017F000084883B000F08CFC049B002B07D005A99F
:101800001800019100F0F0F9034800F081FC00BEDF
:10181000FDE7C046EC820010FC82001010B50148C4
:10182000FFF7E4FF0083001030B50C2083B000F018
:10183000B7F9FEF70FFF00280ED0944B944A1A60B8
:101840005A609A60DA601A615A619A61DA611A62C2
:10185000904A5A6203B030BD8F4CA06700F0A8F9DF
:1018600001228E4B1A60636C012BFCD103228C4B3E
:101870001A60894A936B012BFCD101330121894AFB
:1018800089480093043300F033F90523874A009315
:101890000121874800F02CF9864B5A68FF2A02D8AC
:1018A000802252005A608022784C7D4B21691201BF
:1018B000804D1A60002905D0606900F0E7F9013019
:1018C0000138FDD1E0217B4B02201A6811408022B3
:1018D00052012A43116019684840032101401160F8
:1018E00004219A681142FCD08022802192012A436F
:1018F00009011160802252005A606F4B23616F4BC7
:101900005968FF2900D85A600321644A6B4B116063
:1019100002399A681142FCD0E0201A6810408022F7
:1019200052011A4310601868484003210140022008
:10193000116062498A681042FCD0802292011343F0
:10194000802212011A6080225D4B52004A6063615E
:101950005C4B5968FF2900D85A6080225A4BE169D4
:101960001201584D1A60002905D0606900F08EF907
:1019700001300138FDD1E02252490B681A40802322
:101980005B012B431A60802380229B012B431201B1
:101990001A6080223E4B52004A60E3614B4B59680B
:1019A000FF2900D85A608022494B216A1201474D15
:1019B0001A60002905D0606900F068F9013001382B
:1019C000FDD1E02241490B681A4080235B012B4383
:1019D0001A60802380229B012B4312011A6080230E
:1019E00080225B004B602A4BD2022362394B59683C
:1019F000914200D25A608022374B616A1201354D04
:101A00001A60002905D0606900F040F90130013802
:101A1000FDD1E0222F490B681A4080235B012B4344
:101A20001A60802380229B012B4312011A608023BD
:101A3000DB024B60174B6362284B5A68FF2A02D8BF
:101A4000802252005A608022254BA1691201234D49
:101A50001A60002905D0606900F018F901300138DA
:101A6000FDD1E0221D490B681A4080235B012B4306
:101A70001A60802380229B012B4312011A6080236D
:101A80005B004B600E4BA361E4E6C046C41300202C
:101A9000006CDC021BB70000008000403CB000403E
:101AA00030B00040002F685900800240008C86470B
:101AB00000C0024030800040001BB7003C80004066
:101AC000405973075480004054B00040608000408B
:101AD00060B000406C8000406CB000404880004026
:101AE00048B00040014B8000C0587047C41300202C
:101AF000F0B5C646040000B50C2090461F000E004D
:101B000000F0C4F84101091A8D01691AC9000918C9
:101B10008901404600F0BAF8069B3F041A03236887
:101B20001743002B22DB1A4B1A4DE21853425A413D
:101B300080235B019C461203174B62441A60174BCB
:101B40001A601100AB689943FBD1C022231D92019A
:101B50001A4321232660A06013602368002BFCDA5F
:101B60000823E760136080BCB846F0BD3F232268BD
:101B70001340B342D7D1A3681B051B0D8342D2D1BA
:101B8000EE22E368D2021340BB42CCD1EBE7C04661
:101B90000040FDBF00C0004000E0004000F00040F9
:101BA0008023024A9B000343D362704700800540B4
:101BB000AA23064A1B0113602F230549D360054B56
:101BC00019605368002BFCDA7047C04600400240A1
:101BD00000B0FA000060024010B5002800D110BD2E
:101BE00000F046FAFBE7C04610B5094A0300146846
:101BF00084B0002C08D0012200910648524203A96B
:101C0000A047012004B010BD00F082FA0020F9E7DF
:101C100038180020D91B001001480421014B184737
:101C2000D0020020491C0010142310B501001888B0
:101C300004331B88984710BD162310B5010018887F
:101C400002331B88984710BDF8B54746CE4680B58D
:101C50000F1E19D0142399460433040000250126D1
:101C600098464B461888434621681B88984701C40C
:101C7000431E9841013540420640AF42F1D1300049
:101C8000C0BCB946B046F8BD0126F8E7114A936FCB
:101C90009B0813D210665166002905D0FFE7FFE7C5
:101CA000FFE7516F106F704704B5002801D0002086
:101CB000C04306F0B9FA002104BDC046F0B5146E69
:101CC000556E576F166FFFF7E5FF14665566576739
:101CD0001667F0BD000000D0132370B51D78012DEC
:101CE00015D010DD1C48FFF7A7FF1C4C0100802217
:101CF000200000F0D7F8022D06D01948FFF794FF16
:101D0000184B186070BD154C174BA364F5E7164BC4
:101D1000124C23606360A360E36023616361A3618D
:101D2000E36123626362A362E36223636363A36389
:101D3000E36323646364A364E36423656365A36569
:101D4000E36523666366A366E36623676367A36749
:101D5000E367A364D1E7C04653440000080D0020A8
:101D60004C330000541800206D1D001007B560466C
:101D700001880A0A0230DF2AFAD1C9B2820804D3E4
:101D8000028840880004104300E00068014A505077
:101D9000039007BD080D002051434343C9188C46EA
:101DA000110C83B24B4310B4040C614392B280B265
:101DB000504362431C041B0C001910BC594113040E
:101DC000120CC0185141614470470000132310B534
:101DD00012481C78FFF730FF0100012C0AD003DD08
:101DE00080220F4800F05EF80E48FFF71DFF0E4BF3
:101DF000186010BD0A4C5422200000F053F80B4B21
:101E00006365A365E36523666366A366E36623678C
:101E10006367A367E3672362E361E5E75346000076
:101E2000080E00204C33000054180020311E001012
:101E300007B5604601880A0A0230DF2AFAD1C9B222
:101E4000820804D3028840880004104300E0006840
:101E5000014A5050039007BD080E002010B5040041
:101E600005F052FD002804D0034B04199C4200D811
:101E700010BD0248FFF7BAFC000004200C830010DC
:101E800010B505F04BFD10BD01480421014B18476A
:101E9000E0020020491C0010014B1B68184700009D
:101EA000E0020020014B5B6818470000E0020020C0
:101EB000030010B5080011001B68984710BDC0460C
:101EC000F0B546464F46D646C0B5437C80460E0028
:101ED0001700002B46D0002A3FDD4B1E9946244BAD
:101EE0000125002400209A460DE04B461B5D0D3B6A
:101EF0005A425341325DDBB20A2A0BD02B00013427
:101F000001359F421ADD002CEFD14346325D1B7C28
:101F10000A2AF3D1002BF1D1A04204DA4346211A58
:101F20001B6830189847434650461B680221984763
:101F3000013428002B0001359F42E4DC874204DD98
:101F40004346391A1B6830189847F619013E337812
:101F50000D3B5A42534142461374E0BCBA46B14667
:101F6000A846F0BD0368110030009847F5E7C04669
:101F70007C830010F0B557464E464546DE461C00B1
:101F8000D023E0B51B061F68344B83B006000D005C
:101F9000180001A991469A4606F04EF9804600289D
:101FA00008D1019B7FB29F4204D0504606F054F9FD
:101FB000012398466B1C03D1300005F089FF050012
:101FC000002C27D1264F274B1C68002C18D04B46DD
:101FD000002B21D1244B994602E0E468002C0FD05D
:101FE0002368002BF9D04B461B68002B01D0A3427D
:101FF000F3D120002A003100B847E468002CEFD16B
:102000004346002B25D103B0F0BCBB46B246A946DF
:10201000A046F0BD154FD6E7134B99460A239B46C1
:1020200002E0E468002CEBD02368002BF9D04B468B
:102030001B68002B01D0A342F3D12A0031002000FD
:10204000B8475A466B4620001A7101A90122B847C9
:10205000E7E7504606F0E0F8D5E7C046980B0020C9
:10206000C11E00102C14002030140020B11E0010DE
:10207000F0B5CE46474680B583B06B46DE1CD02314
:1020800030701B061C681F4B804601A9180099463A
:1020900006F0D2F8071E20D01B4B1C68002C28D05D
:1020A0001A4D02E0E468002C0FD02368002BF9D011
:1020B0002B68002B01D0A342F4D120000122310073
:1020C000FFF7FEFEE468002CEFD1002F11D140464F
:1020D00003B0C0BCB946B046F0BD019B64B29C429F
:1020E0000BD0484606F0B8F8074B01271C68002CB7
:1020F000D6D1484606F090F8E9E7034B1C68002C5F
:10210000CED1E4E7980B00202C14002030140020DE
:1021100070B5040005F0DCFE00230100050001227B
:102120002000FFF727FF084B1C68002C06D06368CF
:10213000002B05D09847E468002CF8D1280070BD2A
:10214000E468002CF3D1F9E72C1400200A4A136844
:10215000002B05D10CE01A00DB680C32002B07D0F5
:102160009842F8D1002902D1C3681360C16070475A
:102170000029FCD01060FAE72C14002010B500F004
:1021800043F810BDF0B50D1E15DD0E4B0D271A6876
:102190000D4B4519D31859424B410C495B005E5E0B
:1021A00020210478A64207D093691942FCD101305E
:1021B0001460A842F5D1F0BD93691942FCD11760B3
:1021C000F2E7C046741800200080FCBF6C180020A5
:1021D00030B504000D1E12DD00201021094B013C1A
:1021E0001A689369194208D1013093691942FCD1E8
:1021F000136823548542F4D130BD0028FCD103205C
:102200004042F9E774180020E12110B50B4B0C484F
:102210001B780C4B49021B780B4B1860FFF7E2F957
:1022200002210020FEF758F902210120FEF754F99F
:1022300001210648FFF78AFF10BDC046188600102E
:10224000004003401C86001074180020F00200209B
:1022500070B51C000A4B15001860FFF7C3F9002D7C
:1022600003DB02212800FEF737F9002C03DB0221F3
:102270002000FEF731F901210248FFF767FF70BD2A
:1022800074180020F0020020F8B5DE4657464E468E
:1022900045468346E0B505200C00FFF723FC060009
:1022A000600821008019FFF7F1FC43009846804444
:1022B000070005214046FFF7E9FC3B1A9A46204BF0
:1022C0008146700080199C4234D81E49FFF7DEFC1D
:1022D000451C5B461C680023E366226804335340B8
:1022E00006221A4080235B0123431A605346E361B0
:1022F0004B462362434601204F2B03D950214046D1
:10230000FFF7C4FCA0232200E0508023E06F7C3262
:1023100045402D045B0113432D0C1D600123390042
:102320003000E366FFF7B2FCF0BCBB46B246A946FC
:10233000A046F8BD0449FFF7A9FC451CC9E7C04603
:102340003F420F008096980040787D01104A70B59A
:10235000821A53425A41072352429A430D4B10327C
:102360001A600D4B0D4C1A601500A3689D432B1E7F
:10237000FAD166240268FF340571D5661460633CA7
:102380008833FF3CD5639563D450FFF77DFF70BD64
:102390000403002000E0004000F0004000C00040C6
:1023A000F0B557464E464546DE4690460022E0B51B
:1023B00083B01E000CAB1B7884469A460368DA662D
:1023C00001325960DA66002E4FDD51464A40520212
:1023D00001928022914632008025771E00204646D9
:1023E00010219046AD000024002804D162461479E3
:1023F000621E9441A40200229346B8421AD0325C75
:1024000022435C4622431A615A6B1142FCD04A4671
:102410009C58002C11D1B84222D001308045E2D125
:10242000634652461A7103B0F0BCBB46B246A94699
:10243000A046F0BD019A9346E1E75A6D012293460A
:102440005A6B2A42FCD01A6E5A46002AE5D0002C5C
:1024500003D0E30701D42307E2D402204042DFE7A0
:102460005246002AD9D1D346EAE70020D8E7C04631
:10247000F0B5982357464546DE464E466C4AE0B5D1
:10248000D75880253C006D02883B9A4683B02C408B
:102490002F420FD001222321664B00205A54DA70BC
:1024A000654901F063FA8022644B92021A65644B1D
:1024B0002C009A46FB0617D480235B011F4245D1AE
:1024C0008023DB011F4200D088E080231B021F42D3
:1024D00000D091E0BC4200D0A5E003B0F0BCBB4608
:1024E000B246A946A046F0BD514B9B6D9846002BC5
:1024F00027D0524B00249B46012399464346012690
:10250000B8461F0004E001347600E4B2202C17D056
:102510003742F8D05B469E654B466508A3436D0085
:10252000ED18444B6D019C466544280000F08AFB81
:1025300000286CD10134B743E4B27600002FE5D116
:10254000474680235B0154461F42B9D01C430023F9
:10255000374A00211360384A3A489360D3603A4AB8
:102560009360D360394A9360D360394A9360D360F3
:10257000384A9360D360384A9360D360374A936097
:10258000D360374A9360D360364A9360D360364A4B
:102590009360D360354A9360D360354A9360D360CB
:1025A000344A9360D360344A9360D360334A936073
:1025B000D360F0229200FFF76FFC314B314A0021CB
:1025C0001A600020012201F0A7F980221B4B1203A0
:1025D0001A658023DB011F4200D176E70122042126
:1025E00000201C4301F008F91022144B1A658023C7
:1025F0001B021F4200D16DE70122052100201C4370
:1026000001F0FAF880220D4B12011A6562E74B4681
:10261000AA8AA97800200093002301F0CFF92800AE
:1026200000F04CFA86E7210017487940FFF7DEF802
:1026300000001150381400200000105000301150DC
:1026400010000100781400200800105010001050F5
:10265000180010502000105028001050300010506A
:1026600038001050400010504800105050001050DA
:10267000580010506000105068001050700010504A
:102680004018002080011050C083001010B50121B7
:102690000520FEF711F810BD10B5002200210248F8
:1026A00000F034FA10BDC046581400208022024BBE
:1026B0005202DA647047C04600201150F0B5C64699
:1026C00000B5060000F0D4F90C23354D0520AB67AA
:1026D0003449FEF70BF840239846334C4022002142
:1026E0002000FFF7D9FB43460127A38321210023C4
:1026F0002E4A6770A260136063545F316184414663
:10270000A187023963542A4A2A496360E260A162C0
:102710000B60E262284A63629360D360274A20001C
:102720009360D360264A00219360D360254A4030ED
:102730009360D360244A9360D360244A9360D3604B
:10274000234A9360D360234A9360D360224A936004
:10275000D360224A9360D360214A9360D360214AB8
:102760009360D360204A9360D360204A9360D36023
:102770001F4A9360D360F0229200FFF78DFB1D4B40
:102780001D4A30001A6080239B052F64EB64902360
:102790001A4AEA50FFF78AFF80BCB846F0BDC0462F
:1027A00000001150712400103814002084001050D3
:1027B0000001105080001050000010500800105010
:1027C0001000105018001050200010502800105019
:1027D0003000105038001050400010504800105089
:1027E00050001050580010506000105068001050F9
:1027F00070001050401800208001105010D00100CF
:102800000B785B0602D14B78052B00D070478A7895
:10281000014B1A60FAE7C04600001150F0B5CE46F1
:102820004746072380B548798E780A790340C878EF
:102830007F21800731401B02F40913434F00820FB0
:10284000944691462A4D3A195201AA1896700126CB
:1028500066405670604600269383D6709077CA0013
:10286000012C29D023488446880162448446AC4424
:10287000604682601660002929D01F4AC900904630
:10288000414441603F223F3393434A46022A00D1EC
:102890005B001A493F190A687F01D3180B60184B77
:1028A000ED195340EA604A469006184380231B0600
:1028B00018436B68186010E012488446880162442F
:1028C0008446AC4460468262166000290AD1002327
:1028D00064012D196B600C4BEB600120C0BCB94644
:1028E000B046F0BD064AC900904641444162C9E77E
:1028F00038140020840010500400105040180020AC
:1029000000001050800010500001105000231C4A9D
:1029100010B59360D3601B4A00219360D3601A4ABC
:102920001A489360D3601A4A9360D360194A93603F
:10293000D360194A9360D360184A9360D360184AF1
:102940009360D360174A9360D360174A9360D36053
:10295000164A9360D360164A9360D360154A936019
:10296000D360154A9360D360144A9360D360F02219
:102970009200FFF791FA124B124A1A6010BDC0463E
:102980000000105008001050100010507814002063
:102990001800105020001050280010503000105027
:1029A0003800105040001050480010505000105097
:1029B0005800105060001050680010507000105007
:1029C000401800208001105010B57F200C002040DE
:1029D0004000E409110000191A00034B4001C0181F
:1029E00000F094F8012010BD381400207F2213005D
:1029F00010B50B400A420BD0C9098022580040187C
:102A00000649400140181201002100F05DF810BD98
:102A100002220348C909521A8266EEE738140020E0
:102A2000002011507F22100010B508400A4200D14A
:102A300010BD0023C909400040180449400108188E
:102A400000220349C37000F03FF8F1E7381400207A
:102A5000FFF7FFFF7F21C309034A9B00014010B528
:102A60009A580248FEF7C2FE0C030020D4830010DF
:102A700080220D4B520410B51A600C4B0C491A60A1
:102A800010008B689843FBD10A4C9C220021200047
:102A9000FFF702FA8022002152010748FFF7FCF9F4
:102AA0000923636710BDC04600E0004000F000400D
:102AB00000C00040000011500000105000230374BB
:102AC000438283828361704710B58368002901D0F7
:102AD0001C682140002A11D08024E40011432242C6
:102AE0000CD01A6822420BD1074A0A401A60FFE74D
:102AF000FFE7FFE7FFE7FFE7FFE78368196010BD27
:102B00008078FFF7A7FFC046FFFBFFFFF0B5C64682
:102B1000002300B5838201330374436804001E68F8
:102B2000838B81611F1C934200D9171C8025BFB283
:102B3000D21B93B2E278ED0063823D43002A02D0BB
:102B40009025AD013D4301204240E2706278002AA9
:102B500051D0002B1DD1A023DB011D43354B1B6C35
:102B6000354B33408026B6051E436368A2681E605D
:102B700013685B055AD4314B2B401360FFE7FFE726
:102B8000FFE7FFE7FFE7FFE7A3681D6080BCB846EB
:102B9000F0BD802252011543264A126C920703D4DD
:102BA000A278D209012ADBD1A28B111C9A4200D94A
:102BB000191C80278AB2FF009B1A90461743E278BF
:102BC0009BB26382002A03D090274146BF010F4386
:102BD00001214A40E2706278002A19D0002B02D10C
:102BE0008023DB011F43164B3F043340A026F6052C
:102BF0003D431E43B9E73A00E068FFF753F9A36984
:102C00009C46802367441B021D43A761638AA0E79B
:102C1000E0684246A1694030FFF744F9A3694344A4
:102C2000A36180231B021F43638AD7E7A078FFF7C5
:102C300011FFC04600001150FFFFFFAFFFFBFFFF79
:102C4000FFFFFFDFF0B5C64600B5067C0400002E8E
:102C500000D1D3E083681A681D684378AD05AD0DD7
:102C6000002B51D1838AEB189BB28382A18B8D42BA
:102C700007D20023638263681B68300080BCB846BB
:102C8000F0BD62681268520002D58D4200D175E035
:102C9000638A002BF1D062681F1C16688B4200D932
:102CA0000F1C8025BFB2DB1BE2789BB2ED00638274
:102CB0003D43002A02D09025AD013D4301214A4009
:102CC000E2706278002A68D0002B2AD1A023DB01B1
:102CD0001D434F4B1B6C4F4B33408026B6051E43A4
:102CE0006368A2681E6013685B0500D58DE04A4BDF
:102CF0002B401360FFE7FFE7FFE7FFE7FFE7FFE792
:102D0000A36800261D60B8E72A00C1688069FFF744
:102D1000C9F8A38AA269EB189BB25219A382A261D7
:102D2000A4E7802252011543394A126C920703D45A
:102D3000A278D209012ACED1A28B111C9A423FD887
:102D400080278AB2FF009B1A90461743E2789BB215
:102D50006382002A2FD101214A40E2706278002A62
:102D60003ED0002B02D18023DB011F432B4B3F04BD
:102D70003340A026F6053D431E43B1E7A26815681F
:102D80006278AD01AD0D002A1CD1EB18A3828D42F3
:102D900000D37DE7002363826FE73A00A169E06812
:102DA000FFF780F8A3699C46802367441B021D43FC
:102DB000A761638A88E790274146BF010F43CAE7AE
:102DC000191CBDE7E1682A004031A069FFF76AF8E5
:102DD000A38AA18BEB18A382A3695B19A361D6E731
:102DE000E0684246A1694030FFF75CF8A3694344BC
:102DF000A36180231B021F43638AB2E77F2381788C
:102E0000074A08481940FEF7F1FCA078FFF722FEB8
:102E100000001150FFFFFFAFFFFBFFFFFFFFFFDFD1
:102E20000C030020F4830010014B18787047C04653
:102E300079180020F8B54746CE4680B5294F0500E1
:102E40003B78002B04D00120C0BCB946B046F8BD89
:102E5000532200212448FFF71FF8244C2000FEF7DE
:102E600095FB234B1C60234C20001C30FEF7AAFB73
:102E7000200001F069FB204B204E1C60204B98463F
:102E8000002B04D0300000E000BF1E4B186042460B
:102E900000243378002A1DD01B4A9046194A9146D7
:102EA0009C4210D31BD14346984701343378E4B297
:102EB000A342F5D22800FFF701FC2800FFF7E6FB4C
:102EC00001233B70BFE74A46630012681B19DB0011
:102ED0009B58E9E700F09CFF3378002BEAD00023F1
:102EE0001B68FFDE79180020941200204C1200208D
:102EF000E812002014030020EC12002078180020B3
:102F0000000000009C100020113E0010F0B5DE46CD
:102F100057464E464546E0B58BB001F0D9F800283B
:102F200000D144E1C24BC34E9B4607AC3568EA6909
:102F3000EFF3108172B61368002BFCD0BFF35F8FE4
:102F400029622800210001F073F9EA692B6ABFF3B6
:102F50005F8F0021116083F31088002800D126E1E3
:102F60006378082BE2D85A469B00D3589F46636883
:102F7000002BDBD0A0689847D8E77F222179AE4BA1
:102F80000A405500C8095B191B181800012730308A
:102F9000C578BD43C570C5780337BD43C570002AE9
:102FA00000D10BE1A54ADB7C002A06D0A44A1278A6
:102FB000934200D291E19B1ADBB2002B00D0F6E0E5
:102FC000A04D62792078A368A847AFE701229A4F05
:102FD00001213B78042013433B703323FA5C8A437E
:102FE000FA54FA5C8243FA540133FA5C8A43FA5485
:102FF000FA5C8243FA54237800209A4600F026FEB9
:10300000602223791A40602A0DD0402A00D1F2E0D4
:10301000DB06DB0E012B00D16AE1022B00D121E19E
:10302000002B00D1F6E020780021FFF7DFFC8021A3
:103030002078FFF7DBFC79E77F4B1B78DB0700D4B8
:1030400074E7814B002B00D170E704F0C7FB6DE7FC
:10305000794B1A78D20700D468E77C4A002A00D15D
:1030600064E718780007C00F04F0B0FB5EE7744D0A
:10307000724A00272B78002A00D1B6E0744A9046A5
:103080009F4208D39F4200D0B2E00137FFB29F4277
:1030900000D94BE7F6D2414609687A008C46D2192E
:1030A000D20062445269002AEFD02078904701375D
:1030B0002B78FFB29F42E3D938E72378604D5F4A0F
:1030C000984600272B78002A00D186E0614A914675
:1030D0005F4A92462A0045469046BB425ED800D0E1
:1030E00078E04B4628009847434601371B78FFB2EB
:1030F000BB42F2D2504D532200212800FEF7CCFEF5
:103100001022FF21E81CFEF7C7FE28002022FF2125
:103110001330FEF7C1FE00F08FFD4F4B002B00D1A6
:1031200004E704F04DFB01E72378454D434A9846F8
:1031300000272B78002A47D0464A9146444A9246B7
:103140002A00454690469F421FD343D14B46280054
:103150009847434601371B78FFB2BB42F3D2364D46
:10316000532200212800FEF797FE1022FF21E81CC1
:10317000FEF792FE28002022FF211330FEF78CFE7E
:1031800000F05AFD2379AB70D0E6524612687B00FE
:103190009446DB19DB0063445B68D8E7524612684B
:1031A0007B009446DB19DB0063445B689AE70BB055
:1031B000F0BCBB46B246A946A046F0BD6279207875
:1031C000A36800F057FDB1E6404600F04FFE2B78B3
:1031D000002BC4D000235B68FFDE404600F046FEB3
:1031E0002B78002B00D185E7F4E7002B00D19DE67A
:1031F00000235B69FFDE1948002800D113E700F0C7
:1032000025FD0021504608AA00E000BF002800D09C
:103210008CE608E7202A00D19FE0002A00D002E7D0
:103220006379092B00D9FEE60D4A9B00D3589F46CF
:1032300020840010EC1200209412002000000000F6
:1032400078180020BD3F0010DD770010CD7700100A
:103250009C1000206D3E0010C1770010000000009F
:10326000448400107023217A0B4200D0DBE60F3338
:103270000B405B00F818CD090093C14B4019C07C8E
:10328000002B06D0BF4B1B78984200D288E0C01AB2
:10329000C0B200287ED1002A00D015E1BA4B0193BC
:1032A000637998460223424699469A43012A00D1FF
:1032B0000EE14346002B00D0B5E6009B06AAFB18A2
:1032C0005D193035EB7802329B07DB0F13805046D7
:1032D000022308A900F052FC28E65A00D318AB4A92
:1032E000DB001268D318002B00D160E71D6968E687
:1032F000237A0F2B00D996E6A14AFB18DB78002A27
:1033000005D0A04A1278934264D39B1ADBB2002BFB
:1033100000D088E69E489C4D00F098FC0021504665
:10332000EB6808AA9847002800D0FFE56022150046
:1033300023791D401A4200D075E663790A3B012BC0
:1033400000D970E600F082FC63790A2B00D1EEE030
:10335000504608A900F0FAFBE8E5237A0F2B00D9C4
:1033600061E6874AFB18DB78002A06D0854A127886
:10337000934200D2D0E09B1ADBB2002B00D052E681
:103380008348814D00F062FC00215046EB6808AA9A
:1033900098473BE7002A00D045E6002301937FE7EA
:1033A00043009C46794B60441B68C0009C46030068
:1033B00063440193002A00D172E7002B00D132E66A
:1033C000D86800F043FC019B00215046DB6808AA46
:1033D00098471BE76D4A5D00EB181568DB00ED1898
:1033E000002D00D11FE6E86896E7E388012B00D0A6
:1033F00019E608223B785046934308A93B7000F039
:10340000A5FB93E50220397806AB9A1C8B06890848
:10341000DB0F01400B4359E7A37901931A007B7836
:103420009A4207D07B78002B00D01EE1019B002B35
:1034300000D0B3E0019B504608A97B7000F086FBEA
:1034400074E57B7806AA023213705046012308A95E
:1034500000F094FB6AE5E088030AC0B20F2B00D9A4
:10346000E1E54C499A008A58974608A800F0F4FB19
:103470005046A179FFF710F902223B7813433B70C5
:1034800054E5E388012B00D0CDE508223B78504677
:10349000134308A93B7000F059FB47E5022B00D10C
:1034A00094E13D4B002B00D1BDE500E000BF0200E0
:1034B000002A00D1B7E5D37891781B020B43504620
:1034C00008A900F05BFBA1E62F4B3148019378E798
:1034D000E288002A09D14346012B3DD0009BFB180E
:1034E0005D193035EB789B072AD5019D002D00D161
:1034F0001CE5EB681800009300F0A8FBEB680021C6
:1035000008AA50469847002000F0A0FB3423FB5C3B
:10351000DB0700D50AE51BE71C4A5D00EB181568C0
:10352000DB00ED18002D00D17DE5E8682AE706AB49
:103530009A1C5046012308A9157000F01FFBF5E402
:103540005046FFF753FA0222EB7813430122EB7047
:10355000EB781343EB70C8E7009BFB185D1930351F
:10356000EB789B07C1D55046FFF75CFA4A46EB78EB
:1035700093434246EB70EB789343EB70B5E7C0465C
:103580000000000078180020AC8400109C1000207F
:10359000B93F00106C84001000000000581EC0B23B
:1035A00004F03EF9002800D13DE543780493022B56
:1035B00000D038E50121C3799A115B110A400B4014
:1035C00052011B0113433A782F318A4313433B7056
:1035D00009239946C37882781B021343C318814498
:1035E0000393039B4B4500D8E9E04B4601225B78EF
:1035F00000920B2B07D14B46DB7800934B461B7890
:1036000099444B465B78042B00D00CE54A46039B5B
:1036100000259B1A9BB202936E4A6F4B1B78002ABF
:1036200016D162E0AB4271D16C4A6D4B904649466F
:103630005046029A98478446082802D9029A824244
:1036400069D2654B01351B78EDB2AB4200D2EAE49A
:10365000AB42E7D9634A6B0012685B199046DB0006
:103660009844434605929B68E1E75046FFF74EF9C0
:10367000BB78594D574A009300212B78002A2DD052
:10368000584A90462A000D0091469D421DD300D015
:10369000A0E5554B504698474B4601351B78EDB297
:1036A000AB42F2D2532200213800FEF7F5FB102284
:1036B000FF21F81CFEF7F0FB38002022FF21133019
:1036C000FEF7EAFB009BBB70B0E6424612686B0057
:1036D00094465B19DB0063445B68DBE7504600F00F
:1036E000C5FB2B78002BDDD074E5029B49461A0000
:1036F0005046984600F0CCFB8446082801D9404546
:1037000007D9354B1B78002B00D18CE400239B6834
:10371000FFDE324B9846009B012B48D0009B002BCC
:1037200010D04B469978002305E0D5700133009AFC
:10373000DBB2934206D2CA18D2B2BA18D078FF28A8
:10374000F3D070E43800E0462B004946624613305F
:1037500000F0FEFC204BC1441B78AB4200D340E795
:1037600061E4224B002B00D15DE400E000BF0200C9
:10377000A1E604F051F81223020008A9504600F017
:10378000FDF943E51A4B002B00D14CE400E000BFEB
:10379000021E00D147E45046137808A900F0EEF964
:1037A00034E5218904F040F8021EF4D13BE442469E
:1037B0000B4B92689A42B4D1049B0093B1E70D4B36
:1037C000002B00D136E603F0F3FF33E604F028F8CF
:1037D00002006DE60000000078180020AC840010A4
:1037E000913E00109C1000206D3E00100000000073
:1037F00000000000B177001030B587B005000C0064
:103800000C2200216846FEF747FB6B461D705C707A
:10381000042C4FD009D8022C34D0032C19D13C4BA6
:103820001A78520758D407B030BD052C11D1384B47
:103830001A78D207F7D504211A788A431A70354BC3
:103840001C68E269EFF3108172B61368002B09D18E
:10385000FBE7304B1C68E269EFF3108172B6136826
:10386000002BFCD0BFF35F8F21626946200000F07F
:10387000ADFDE269236ABFF35F8F0021116083F31E
:103880001088D0E70121224B1A788A431A701A78DF
:103890000331A2431A7000225A701A788A431A70B0
:1038A0001C4B1C68E269EFF3108172B61368002BA1
:1038B000D8D1FBE7164B1A78D207B4D504211A7871
:1038C0000A431A70134B1C68E269EFF3108172B659
:1038D0001368002BC6D1FBE704211A7803A88A439A
:1038E0001A7000210C22FEF7D7FA6B466A461D7348
:1038F00005235373074B1C68E269EFF3108172B61E
:103900001368002BFCD0BFF35F8F216203A9ADE7E2
:1039100094120020EC12002070B584B001AC0600B7
:103920000D000C2200212000FEF7B6FA012363707F
:103930000D4B25711D682670EA69EFF3108372B68E
:1039400011680029FCD0BFF35F8F2B622100280093
:1039500000F03CFDEA692B6ABFF35F8F0021116024
:1039600083F3108804B070BDEC120020002330B542
:1039700085B001AD6B8028700633082202A86B70F9
:10398000FEF790FA0C4B1C68E269EFF3108372B6F5
:1039900011680029FCD0BFF35F8F2362290020004B
:1039A00000F014FDE269236ABFF35F8F002111600C
:1039B00083F3108805B030BDEC120020F0B5C64688
:1039C000804600B584B001AC0F001600002108222B
:1039D00020001D00FEF760FA434623700723637042
:1039E0000F4B65711D682771A660EA69EFF31083BC
:1039F00072B611680029FCD0BFF35F8F2B622100E3
:103A0000280000F0E3FCEA692B6ABFF35F8F002116
:103A1000116083F3108804B080BCB846F0BDC04686
:103A2000EC120020702270B58B7805000C001A4251
:103A300001D0002070BD064B2000997800F04CFBAF
:103A40000028F6D021002800FEF7E8FEF2E7C04685
:103A50009412002070B57F240C406300144CC909F7
:103A6000E41864183034E378DB07DD0F002B18D13D
:103A7000E3785B0701D5280070BD01210D4E494256
:103A8000306804F0E1FBE378DB07DD0F002B0AD19F
:103A9000E3785B0708D40422E37801251343E3703D
:103AA00002E00025E7E70025306804F0B5FBE2E717
:103AB00094120020E812002070B50C0001210F4D77
:103AC0004942286804F0C0FB7F2121404B000C498B
:103AD000E409C91809193031CB780024DB0708D470
:103AE000CB785B07DC0F002B03DA0422CB789343FF
:103AF000CB70286804F090FB200070BDE812002015
:103B00009412002070B57F250F4C0D406D00641994
:103B10000600C80924183034E5780020ED0700D5E8
:103B200070BD0125E0782843E0703000FEF74CFFBF
:103B30000028F5D10122E3789343E370E378033260
:103B40009343E370ECE7C0469412002070B50A4E30
:103B50000500300008220C00FEF7A4F900237F21A5
:103B6000F3602278B36091425B412800D9010022C2
:103B70000023FFF7C7FF70BDA0100020F8B5CE46A8
:103B8000474691462A4E80B50822070030000D00B6
:103B90009846FEF787F94B46B3600023F381EC7932
:103BA000A97924020C43231C444500D943469AB208
:103BB0009046B381002C13D0002A1FD04B46002B17
:103BC00034D0131C402A1FD89BB2984633787F2BE1
:103BD00020D80021174A43463800FFF793FF09E039
:103BE0007F222B7838009A42644100230022E101B1
:103BF000FFF788FFC0BCB946B046F8BD33787F2BCD
:103C000011D980210022E6E740239BB29846337801
:103C10007F2BDED9074C424649462000FEF742F989
:103C200080212200D7E700210022D4E70020E1E72D
:103C3000A01000205412002010B5142200210248C8
:103C4000FEF72AF910BDC046A0100020014B1861F4
:103C50007047C046A010002010B5054C0100082296
:103C60002000FEF71FF90023A360E36010BDC046EB
:103C7000A0100020F8B53B4C1D0023780600DA099F
:103C8000C9098A4213D00020002D00D0F8BD364B60
:103C9000002B03D021003000FEF7B2FD2369002B7A
:103CA00044D022000221300098470120EEE77F2B0C
:103CB00006D8A068002837D02A002C49FEF7F2F871
:103CC000A368E28959195219E38892B2E281A1608E
:103CD000934214D03F2D12D9A589A81A071C80B28F
:103CE00040282FD82378BFB27F2B2DD80021AA429D
:103CF00035D01E4A3B003000FFF704FFC6E72369BA
:103D0000002B05D0220001213000984700280FD059
:103D10007F220021237830009A424941002300226B
:103D2000C901FFF7EFFEB1E70020AFE70120ADE7E3
:103D300000213000FEF75AFE30008021FEF756FECB
:103D40000120A3E74027CDE7AA4207D0074C3A005D
:103D50002000FEF7A7F880212200CBE78021002277
:103D6000C8E7C046A010002001280010541200200F
:103D700070B5AC256D0045432800054C1030001986
:103D800000F038FA6419A27B637BD31A181870BD4F
:103D9000F4100020F0B5AC25C6466D0045431B4E1F
:103DA00000207719BB7800B5002B02D180BCB84643
:103DB000F0BD2C001034A4190422200000F086FA73
:103DC0008046200000F026FA3F2805D90020B97867
:103DD000FFF740FE002805D14046043843425841D1
:103DE000C0B2E3E7200000F015FA3F2808D92A0006
:103DF000D8324023B97892190020FFF783FEEBE711
:103E0000B9780020FFF758FEE6E7C046F41000201E
:103E1000AC2270B5144C82B0002120005200FEF795
:103E20003BF8002521002000012340224831009565
:103E3000103000F0A3F926002100200001234022C9
:103E40008831C83600952C3000F098F93000FDF725
:103E50009DFBA6622600D03630006562FDF796FB1A
:103E60002664656402B070BDF410002010B5074CE4
:103E7000102200212000FEF70FF82000103000F083
:103E800063FB20002C3000F05FFB10BDF41000201D
:103E9000F0B54646D6464F46C0B54B7906001500EC
:103EA000012B02D18B79012B06D000273800E0BC12
:103EB000BA46B146A846F0BDCB79002BF5D10C78B7
:103EC00023000C196278242A07D009E02278A4186C
:103ED0009B1862789BB2242A02D1AB42F6D9E4E760
:103EE000042AE2D16279012ADFD1A279032ADCD146
:103EF000E0790028D9D12E4A517891469278114321
:103F0000884653D14946A2780A7022782179924690
:103F10009B189FB2A244002907D124E053461A7887
:103F2000BF18BFB2924488451DD2BD421BD3534631
:103F30005B78052BF2D151463000FFF773FD002866
:103F4000B3D053469B78DA09012A27D04A469370AA
:103F500053461A7843460133BF18DBB2984621799D
:103F6000BFB29244DAE7134C200000F053F93F2827
:103F70009CD92500103D0020A978FFF76BFD002893
:103F800094D0200000F046F93F280AD922004023AF
:103F9000A978C8320020FFF7B5FD87E74A4653707D
:103FA000D6E7A9780020FFF787FD7FE70070FFDEE6
:103FB000F41000200411002000207047F0B5C64620
:103FC00000B53C4E0500B2781C008A421FD131007A
:103FD00030009AB2D831103000F036FA364B002B50
:103FE00002D0002000E000BF344D280000F012F99C
:103FF0003F2807D92E00103E0020B178FFF72AFD98
:10400000041E41D10124200080BCB846F0BD737865
:104010008B4201D00024F6E737002C37380000F03F
:10402000E9F8002817D1264E300000F0E3F8002808
:10403000E8D1002CE6D0A306E4D12C3E280071780C
:10404000FFF708FD041EDDD0002328001A00717858
:10405000FFF758FDD7E700207178FFF7FBFC002839
:10406000E1D08C235B009846B044414640223800A2
:1040700000F02CF97178031E18D042460020FFF79B
:1040800041FD0028BED1CEE7280000F0C3F83F284C
:1040900007D92A004023B178C8320020FFF732FD4B
:1040A000B1E7B1780020FFF707FDACE70020FFF78C
:1040B00003FDB8E7F4100020000000000411002008
:1040C0002011002010B50020FEF7B4FE10BDC04640
:1040D00010B5FEF7A9FE10BD072210B5447903798B
:1040E000224012021A43C3789B079B0F022B05D074
:1040F000032B15D00020012B08D010BD02291CD0A5
:104100000020402393424041C0B2F6E702394B42BF
:1041100059410D4B9C46614491424041C0B2ECE78D
:1041200002394B425941F023002049429B0019407B
:10413000403191424041C0B2DFE7044B9C466244AB
:1041400053425A41D0B2D8E7FF03000000FEFFFF00
:10415000F0B5002A11D000247F274D78052D06D117
:104160003D008E7835406D00F6094519AB550D7848
:104170006419A4B24919A242EFD8F0BDF0B5C64601
:1041800000B5150006AA1E001378802204000F0057
:104190009846120295422AD84069002803D001218E
:1041A000494204F051F8A069002803D00121494296
:1041B00004F04AF84346A5806D00ADB223726B1E31
:1041C000A381002360696D42E3812760E6806581F9
:1041D0002382002801D004F01FF8A06901240028E0
:1041E00001D004F019F8200080BCB846F0BD0024CE
:1041F000F9E7C046C189028A8B1A9BB2914202D26A
:1042000042899B1A9BB28288101C9A4200D9181CC2
:1042100080B2704710B5C489018A8388621A92B24D
:104220008C4202D24089121A92B2981A80B210BD02
:1042300070B5040080690E00002803D001214942B6
:1042400004F002F8E189228A88B28D1A93B2ADB2E5
:10425000914202D26289AD1AADB2A288AA4207D2B7
:10426000904225D261895118411A89B215002182E4
:10427000002D02D122E09B1A9BB29A42FBD9E28820
:10428000216853433000C918FDF70CFE228A01252E
:10429000531C9BB29A4214D9002362899B189BB28B
:1042A000A0692382002801D003F0B6FF280070BD6A
:1042B000811AA58989B28D42D8D2D3E70025238AF5
:1042C0009BB2A2899A42EBD2E7E7C046F0B54F46CF
:1042D0004646D6460500806988469146C0B5002806
:1042E00003D00121494203F0AFFFEA892B8A91B242
:1042F000D61A9CB2B6B29A4202D26B89F61AB6B2FC
:10430000AF88B74209D2B94254D26B89FB18CB1A95
:104310009BB23E002B822C8AA4B2002E50D04B467A
:10432000B14545D89EB2A74203D8E41BA4B2A74228
:10433000FBD9EB88381B190099462B6861439C46D2
:1043400080B26144864225D94B46584383B21A0055
:1043500040469A46FDF7A6FD4B464046F71BE4193A
:104360005C432968A2B25044FDF79CFD2A8A931948
:104370009BB29A4218D96A899B189BB2A8692B8272
:10438000002801D003F048FF3000E0BCBA46B14637
:10439000A846F0BD4A4640467243FDF783FD2A8A8F
:1043A00093199BB29A42E6D8AA899A42E6D2E2E7EA
:1043B000331CB7E7CB1BAA899BB29A42A9D2A4E7C8
:1043C0002B8AAA899BB29A42D8D2D4E7F8B50400C6
:1043D00040690E00002803D00121494203F034FF58
:1043E000E289218A95B2531A9BB2914202D962891D
:1043F0009B1A9BB2A2889A4221D02B00954203D3EC
:104400009B1A9BB29A42FBD9E28821685343C81891
:104410003100FDF747FD6B1C9BB29D420BD96289B1
:104420009B189BB260690127E381002801D003F04B
:10443000F3FE3800F8BDA2899A42F3D2EFE7277A5B
:10444000002FDAD1F5E7C046F8B545464E46DE46C0
:1044500057468846E0B50500161E5AD04069002828
:1044600003D00121494203F0EFFEEF892B7A298A1C
:10447000BFB289B2002B3BD17A1AAB8892B28F427D
:1044800002D26989521A92B29A1A111C92B2B2429D
:1044900053D8EA888EB29246F21A92B291463C0004
:1044A0009F4203D3E41AA4B29C42FBD250462A682E
:1044B000604394461B1B9BB2524660449E422AD8DE
:1044C00041467243FDF7EEFCF3199BB29F421CD8A4
:1044D000AA899A4219D36869EB81002801D003F0B8
:1044E0009BFE3000F0BCBB46B246A946A046F8BDD4
:1044F000EA88AB8892469E4221D3F61A56430022A0
:10450000B0440F001E009146C9E76A899B189BB210
:10451000E1E70026E5E753439BB21A0041469B467C
:10452000FDF7C0FC2200534641464A445A432868DE
:1045300092B25944FDF7B6FCC6E7311CA9E7F21A5E
:1045400092B29146ABE7C04610B50400406900281E
:1045500003D00121494203F077FEA069002803D06F
:104560000121494203F070FE0023E3812382A388E6
:1045700060695B009BB25A1E5B42A2816381002886
:1045800001D003F049FEA069002801D003F044FEE9
:10459000012010BD10B51920FBF7CEFFD0238022DB
:1045A000E1211B0692045A620448054B0022186060
:1045B00049020123FDF74CFE10BDC04600400340F8
:1045C0007018002070B504000D00002832D0C36BB5
:1045D0000020002B20D0216C180C0A0C1DD10028C3
:1045E0002AD102F07FFE216CE36B22684B43D01886
:1045F0005B1AD318A0606260E3604422FF230020AE
:10460000A063A3540132A354002D18D12369002BB9
:104610001ED102F073FE012070BD00280AD1181CC3
:1046200089B29BB24B4380B292B242431B0CD31867
:104630001B0CD6D00020EFE7021C081CF0E720007E
:10464000103002F0D7FE2000243002F0D3FEE0E765
:104650002000103001F0EAFF0028DAD002F036FE28
:10466000D7E7C04670B505000E00002843D00B0CFC
:10467000020C002B31D1331C002A32D130006843A8
:104680000300493337D8483002F0CCFD041E32D045
:104690000300002E00D048332360E563266402F057
:1046A00021FE216CE36B22684B43D018A0600020F0
:1046B0005B1AD3186260E3604422FF23A0632000EA
:1046C000A3540132A354103002F094FE2000243091
:1046D00002F090FE02F012FE0EE0002A0BD11A1C2E
:1046E000031CB0B2A9B2414398B293B24343090C40
:1046F0005B181B0CC2D00024200070BDF0B5CE4664
:1047000047460400060080B585B099460192884668
:1047100002F0E8FDA36BE26B0025243693427CD3C4
:104720004B46022B00D1E1E0019B002B00D1F9E0C8
:10473000002D00D1D6E002F0E1FD01F001FD02F014
:10474000D1FD4422A35C5BB2013301D10023A35409
:104750004522A35C5BB2013301D10023A35402F0D4
:10476000CDFD01A902A802F025F8002800D0DDE067
:1047700002F0B8FDA36BE26B934261D002F0BEFD84
:1047800002F0B0FD4523E55C6DB2002D05DC13E0C1
:10479000013DEBB26DB2002B0ED0636A002B0BD043
:1047A000300001F043FF0028F2D0013D02F02AF86A
:1047B000EBB26DB2002BF0D14523FF22E25402F0A0
:1047C0009DFD02F08FFD44232700E55C10376DB29C
:1047D000002D05DC13E0013DEBB26DB2002B0ED0D5
:1047E0002369002B0BD0380001F020FF0028F2D005
:1047F000013D02F007F8EBB26DB2002BF0D144237B
:10480000FF22E25402F07AFD01F0A2FC012502F041
:1048100069FDA36BE26B934282D2226CA56B002AE6
:1048200000D0CDE00135A563636A002B00D0DBE04A
:1048300002F064FD012005B0C0BCB946B046F0BD31
:104840002700103702F05AFD3800019901F018FED8
:1048500002F048FD4523E55C6DB2002D05DC13E058
:10486000013DEAB26DB2002A0ED0636A002B0BD074
:10487000300001F0DBFE0028F2D0013D01F0C2FF64
:10488000EAB26DB2002AF0D14523FF22E25402F0D1
:1048900035FD02F027FD4423E55C6DB2002D05DCFB
:1048A00013E0013DEAB26DB2002A0ED02369002B5D
:1048B0000BD0380001F0BAFE0028F2D0013D01F023
:1048C000A1FFEAB26DB2002AF0D14423FF22E254E4
:1048D00002F014FD01F03CFC002897D102F0F6FC38
:1048E000012594E702A801F05DFF24E7226CA56B87
:1048F000002A97D04146E068FDF7D4FAE168236CBE
:104900005A42CB1A2168E3608B4207D2A3689C46C7
:104910006244E2604B46022B00D083E7002D00D0BA
:1049200081E77FE702F0EAFC002084E702F0DAFC8E
:1049300045232600E55C24366DB2002D05DC13E02E
:10494000013DEAB26DB2002A0ED0636A002B0BD093
:10495000300001F06BFE0028F2D0013D01F052FF63
:10496000EAB26DB2002AF0D14523FF22E25402F0F0
:10497000C5FC02F0B7FC44232600E55C10366DB29E
:10498000002D05DC13E0013DEAB26DB2002A0ED025
:104990002369002B0BD0300001F048FE0028F2D034
:1049A000013D01F02FFFEAB26DB2002AF0D144239D
:1049B000FF22E25402F0A2FC01F0CAFB00203AE719
:1049C0004B464146002B19D16068FDF76BFA226C0B
:1049D00063689446A26863446360934200D221E70F
:1049E0002368013563601EE72000243001F01EFEBD
:1049F000002800D11CE702F069FC19E7E068FDF728
:104A000051FAE168236C5A42CB1A2168E3608B4269
:104A100080D27BE7F0B54F46D6464646C0B5040087
:104A200099460F00904602F073FCE36B0500A06B03
:104A3000984237D34B46022B09D00024280002F0BD
:104A40006BFC2000E0BCBA46B146A846F0BD452349
:104A5000226CE65CA36BA36B76B29A46002A2AD03E
:104A60003900E068FDF71EFAE168236C5A42CB1A60
:104A70002168E3608B4249D2A3689C466244E260AD
:104A80004B46022B42D053460133A363731C16D00E
:104A900001F06CFC864215D24523013676B2E6540D
:104AA0000124CBE74523226CE65CA36BA36B76B2B3
:104AB0009A46002A08D10133A363731CE8D1636AC4
:104AC000002B15D10124B9E74B463900002B21D129
:104AD0006068FDF7E7F9226C63689446A268634456
:104AE00063609342CFD32368636053460133E3E7A7
:104AF0002000243001F09AFD0028E3D04346002B2B
:104B0000E0D0012342460124136097E75346002B6F
:104B1000D2D1D0E7E068FDF7C5F9E168236C5A42CD
:104B2000CB1A2168E3608B42AAD2A5E7F0B5C6464E
:104B3000040000B50E0002F0EBFBA36BE26B050076
:104B400000279A420BD94522A75C01337FB29046D9
:104B5000A3637B1C0AD1636A002B11D101272800B3
:104B600002F0DAFB380080BCB846F0BD01F0FEFB75
:104B70008742F3D2434601377FB2E7540127EEE77D
:104B80002000243001F052FD0028E7D0002EE5D0AF
:104B9000012301273360E2E7F0B5CE464746040023
:104BA00080B585B08846019202F09CFBA56B002D74
:104BB00000D01FE1019B002B00D1CBE0260002A812
:104BC00001F0F0FD4427243602F098FB01F0B8FA1A
:104BD00002F088FBE35D5BB2013301D10023E355B2
:104BE0004522A35C5BB2013301D10023A35402F040
:104BF00085FB01A902A801F0DDFD002855D102F0D6
:104C000071FBA36B002B00D0ACE002F077FB30000F
:104C1000019901F035FC02F065FB4523E55C6DB2BE
:104C2000002D05DC13E0013DEAB26DB2002A0ED082
:104C3000636A002B0BD0300001F0F8FC0028F2D0A2
:104C4000013D01F0DFFDEAB26DB2002AF0D145234B
:104C5000FF22E25402F052FB02F044FB102399467B
:104C6000E55DA1446DB2002D05DC13E0013DEAB223
:104C70006DB2002A0ED02369002B0BD0484601F0FC
:104C8000D5FC0028F2D0013D01F0BCFDEAB26DB2C6
:104C9000002AF0D1FF23E35502F030FB01F058FA6F
:104CA00000284ED102F012FB4BE002F01BFB452323
:104CB000E55C6DB2002D05DC13E0013DEAB26DB29A
:104CC000002A0ED0636A002B0BD0300001F0AEFC3E
:104CD0000028F2D0013D01F095FDEAB26DB2002A44
:104CE000F0D14523FF22E25402F008FB02F0FAFA69
:104CF00010239946E55DA1446DB2002D05DC13E05B
:104D0000013DEAB26DB2002A0ED02369002B0BD010
:104D1000484601F08BFC0028F2D0013D01F072FD05
:104D2000EAB26DB2002AF0D1FF23E35502F0E6FAB1
:104D300001F00EFA02F0D6FAA36B002B0AD002F0B3
:104D4000DDFA02F0CFFAA56B002D53D1019B002BA9
:104D500000D039E702F0D2FA002005B0C0BCB94655
:104D6000B046F0BD02F0CAFA02F0BCFA4523E55C99
:104D70006DB2002D05DC13E0013DEAB26DB2002AF0
:104D80000ED0636A002B0BD0300001F04FFC0028DE
:104D9000F2D0013D01F036FDEAB26DB2002AF0D149
:104DA0004523FF22E25402F0A9FA02F09BFA1023F5
:104DB0009946E55DA1446DB2002D05DC13E0013D8F
:104DC000EAB26DB2002A0ED02369002B0BD0484600
:104DD00001F02CFC0028F2D0013D01F013FDEAB2F5
:104DE0006DB2002AF0D1FF23E35502F087FA01F0FB
:104DF000AFF9A6E7226C002A08D0E3689918A368E7
:104E0000E16099420BD24046FDF74CF8013DA563A5
:104E10002369002B06D102F071FA01209DE7216879
:104E2000E160F0E72000103001F000FC0028F2D033
:104E300002F04CFAEFE7C046F0B5C646040000B5F4
:104E400084B0019102F04EFAA36B002B00D022E156
:104E5000019B002B00D1CBE0260002A801F0A2FCB0
:104E60004427243602F04AFA01F06AF902F03AFACD
:104E7000E35D5BB2013301D10023E3554522A35C1E
:104E80005BB2013301D10023A35402F037FA01A928
:104E900002A801F08FFC002855D102F023FAA36B81
:104EA000002B00D0ABE002F029FA3000019901F0AC
:104EB000E7FA02F017FA4523E55C6DB2002D05DC38
:104EC00013E0013DEAB26DB2002A0ED0636A002BF6
:104ED0000BD0300001F0AAFB0028F2D0013D01F018
:104EE00091FCEAB26DB2002AF0D14523FF22E254D0
:104EF00002F004FA02F0F6F9E55D6DB2002D17DD5F
:104F000010239846A04404E0013DEAB26DB2002AA5
:104F10000ED02369002B0BD0404601F087FB002800
:104F2000F2D0013D01F06EFCEAB26DB2002AF0D180
:104F3000FF23E35502F0E2F901F00AF900284ED10F
:104F400002F0C4F94BE002F0CDF94523E55C6DB207
:104F5000002D05DC13E0013DEAB26DB2002A0ED04F
:104F6000636A002B0BD0300001F060FB0028F2D008
:104F7000013D01F047FCEAB26DB2002AF0D14523B1
:104F8000FF22E25402F0BAF902F0ACF9E55D6DB22D
:104F9000002D17DD10239846A04404E0013DEAB23D
:104FA0006DB2002A0ED02369002B0BD0404601F0D1
:104FB0003DFB0028F2D0013D01F024FCEAB26DB2C5
:104FC000002AF0D1FF23E35502F098F901F0C0F870
:104FD00002F088F9A36B002B0AD002F08FF902F0DF
:104FE00081F9A36B002B56D1019B002B00D039E730
:104FF00002F084F9002004B080BCB846F0BD02F095
:105000007DF902F06FF94523E55C6DB2002D05DCFA
:1050100013E0013DEAB26DB2002A0ED0636A002BA4
:105020000BD0300001F002FB0028F2D0013D01F06E
:10503000E9FBEAB26DB2002AF0D14523FF22E25427
:1050400002F05CF902F04EF9E55D6DB2002D17DD5E
:1050500010239846A04404E0013DEAB26DB2002A54
:105060000ED02369002B0BD0404601F0DFFA002858
:10507000F2D0013D01F0C6FBEAB26DB2002AF0D1D8
:10508000FF23E35502F03AF901F062F802F02AF941
:10509000A36B002BA8D0013BA3632369002B03D192
:1050A00002F02CF90120A6E72000103001F0BEFA32
:1050B0000028F5D002F00AF9F2E7C046F0B5CE4676
:1050C0004746040080B585B08846019202F00AF98F
:1050D000A36B002B00D01FE1019B002B00D1CBE084
:1050E000260002A801F05EFB4427243602F006F9F0
:1050F00001F026F802F0F6F8E35D5BB2013301D16E
:105100000023E3554522A35C5BB2013301D10023A8
:10511000A35402F0F3F801A902A801F04BFB002808
:1051200055D102F0DFF8A36B002B00D0ACE002F009
:10513000E5F83000019901F0A3F902F0D3F8452316
:10514000E55C6DB2002D05DC13E0013DEAB26DB205
:10515000002A0ED0636A002B0BD0300001F066FAF3
:105160000028F2D0013D01F04DFBEAB26DB2002AF9
:10517000F0D14523FF22E25402F0C0F802F0B2F869
:1051800010239946E55DA1446DB2002D05DC13E0C6
:10519000013DEAB26DB2002A0ED02369002B0BD07C
:1051A000484601F043FA0028F2D0013D01F02AFB05
:1051B000EAB26DB2002AF0D1FF23E35502F09EF867
:1051C00000F0C6FF00284ED102F080F84BE002F05C
:1051D00089F84523E55C6DB2002D05DC13E0013D47
:1051E000EAB26DB2002A0ED0636A002B0BD03000F9
:1051F00001F01CFA0028F2D0013D01F003FBEAB2F5
:105200006DB2002AF0D14523FF22E25402F076F875
:1052100002F068F810239946E55DA1446DB2002DB7
:1052200005DC13E0013DEAB26DB2002A0ED023691D
:10523000002B0BD0484601F0F9F90028F2D0013DCF
:1052400001F0E0FAEAB26DB2002AF0D1FF23E35593
:1052500002F054F800F07CFF02F044F8A36B002B3E
:105260000AD002F04BF802F03DF8A36B002B53D1AB
:10527000019B002B00D039E702F040F8002005B078
:10528000C0BCB946B046F0BD02F038F802F02AF8CA
:105290004523E55C6DB2002D05DC13E0013DEAB26B
:1052A0006DB2002A0ED0636A002B0BD0300001F0E3
:1052B000BDF90028F2D0013D01F0A4FAEAB26DB2C6
:1052C000002AF0D14523FF22E25402F017F802F041
:1052D00009F810239946E55DA1446DB2002D05DC67
:1052E00013E0013DEAB26DB2002A0ED02369002B13
:1052F0000BD0484601F09AF90028F2D0013D01F0A8
:1053000081FAEAB26DB2002AF0D1FF23E35501F031
:10531000F5FF00F01DFFA6E7226CE568002A07D024
:10532000A368A918E16099420AD24046FCF7BAFD89
:10533000636AE560002B06D101F0E0FF01209EE7E3
:105340002168E160F1E72000243001F06FF90028C6
:10535000F2D001F0BBFFEFE7F8B5CE4647460400B8
:1053600080B58946904601F0D3FFA66B0500002763
:10537000002E07D1280001F0CFFF3800C0BCB9468D
:10538000B046F8BD4423226CE75C7FB2002A0AD005
:10539000E3689918A368E160994201D32168E1604C
:1053A0004846FCF77FFD013EA6637B1C04D12369C0
:1053B000002B0BD10127DDE700F0D8FF8742F9D29F
:1053C000442301377FB2E7540127D3E72000103090
:1053D00001F02CF90028EDD04346002BEAD0012340
:1053E000424601271360C5E7F8B504000F0001F03D
:1053F0008FFFA36B05000026002B04D1280001F0CD
:105400008BFF3000F8BD226CE668002A09D0A36843
:10541000B118E160994201D32168E1603800FCF7DE
:1054200041FDE6600126E9E710B5040001F05AFFEE
:10543000A46B01F063FF200010BDC04610B504004E
:1054400001F050FFA36BE46BE41A01F057FF20005A
:1054500010BDC046806B70471E4B70B55A689042B5
:105460001DD0DA68904222D05A69904221D0DA6980
:10547000904220D05A6A90421FD0DA6A90421ED0E1
:105480005A6B90421DD0DA6B90421CD05A6C9042FD
:105490001BD0DA6C90421AD001F0D0FE70BD002211
:1054A00000240025D2009B181C605D60F4E70122F7
:1054B000F6E70222F4E70322F2E70422F0E70522EE
:1054C000EEE70622ECE70722EAE70822E8E70922EE
:1054D000E6E7C046B80B0020806B43425841704756
:1054E000836BC06BC01A43425841704770B50029A6
:1054F0000FD000260023424CDA00A5186D688542C3
:1055000000D16FE0002E05D001330A2BF4D13160B9
:10551000706070BDA558002D61D05D1C092BF8D0BE
:10552000EA00A6187668B0425CD0A658002E5DD07E
:105530009D1C082BEDD0EA00A6187668B04251D029
:10554000A658002E52D0DD1C072BE2D0EA00A61888
:105550007668864246D0A658002E47D01D1D062BE1
:10556000D7D0EA00A6187668B0423BD0A658002EE5
:105570003CD05D1D052BCCD0EA00A6187668B04261
:1055800030D0A658002E31D09A1D042BC1D0D500A2
:1055900066197668B04224D06559002D29D0DD1DEA
:1055A000032BB6D0EA00A6187668B0421AD0A658E7
:1055B000002E1BD00135022BABD0EA00A61876686E
:1055C000B0420FD0A658002E10D0012BA1D0E36C12
:1055D000984212D0A36C002B9BD109234822A61815
:1055E00092E7D200A6183160706092E72B00A618EF
:1055F0008AE71300D200A61886E74822A618F2E729
:10560000B80B00201B4A0300516888421CD0D168A7
:1056100088421DD0516988421CD0D16988421BD074
:10562000516A88421AD0D16A884219D0516B884297
:1056300018D0D16B884217D0516C884216D0D16CEB
:105640000020994214D070470023DB00D058FAE7BD
:105650000123FAE70223F8E70323F6E70423F4E73C
:105660000523F2E70623F0E70723EEE70823ECE73C
:105670000923EAE7B80B00201C4B5A6890421BD064
:10568000DA68904220D05A6990421FD0DA6990427D
:105690001ED05A6A90421DD0DA6A90421CD05A6BD2
:1056A00090421BD0DA6B90421AD05A6C904219D0BB
:1056B000DA6C824218D07047002200200021D2000C
:1056C0009B1818605960F6E70122F6E70222F4E71A
:1056D0000322F2E70422F0E70522EEE70622ECE7D8
:1056E0000722EAE70822E8E70922E6E7B80B0020EC
:1056F00070B5050016000C0001F0F4FD4422AB5C0F
:105700005BB2013301D10023AB544522AB5C5BB2E9
:10571000013301D10023AB5401F0F0FDAB6B002B42
:1057200046D001F0DFFD4523EC5C64B2002C16DDB1
:105730002E00243604E0013CE2B264B2002A0ED00E
:105740006B6A002B0BD0300000F070FF0028F2D005
:10575000013C01F057F8E2B264B2002AF0D14523CF
:10576000FF22EA5401F0CAFD01F0BCFD4423EC5CC9
:1057700064B2002C16DD2E00103604E0013CE2B2CB
:1057800064B2002A0ED02B69002B0BD0300000F041
:105790004DFF0028F2D0013C01F034F8E2B264B2CF
:1057A000002AF0D14423FF22EA5401F0A7FD70BD86
:1057B000280032002100243000F0EAFEB1E7C046A4
:1057C00070B5104C14E001F08DFD2369DD68281DD3
:1057D00001F044FEA369013BA3612368013B236000
:1057E00001F08CFD286B01F029FD280001F026FD59
:1057F0002368002BE7D1E369012BF9D901F066FD9D
:10580000F6E7C046240F0020F8B504001A4D0E003C
:105810002F686868043001F021FE631C14D06B68A7
:105820003C195C60A74209D8286A6968043101F014
:10583000FDFD6B6AA34200D96C62F8BDE869696836
:10584000043101F0F3FDF8E7002EE8D06A68EB6858
:10585000996893606A68D1606A68996804324A609E
:105860006A6804329A602A006B6808325A61AB6831
:105870000133AB60E1E7C046A40F0020F0B5DE467F
:10588000454657464E464349E0B50D686B1C9B465E
:105890000B60002B0CD10B6ACA690A62CB618B6A60
:1058A00001338B620B6A1B68002B69D1013B4B6291
:1058B00000224B6A94469B4556D30B6A1B68002B0B
:1058C0004FD000239A46344B99461C234B449846AC
:1058D00036E0504614685861013C14609A6A002A08
:1058E0000ED0DC69186A5568A060186A44601C0014
:1058F0001834A54249D0504614689862013C14609F
:10590000DC6ACA6A944200D9CC624846A2001219E5
:1059100092008018076A4244BD689F60DD60BD68E0
:105920006E60BE605A61C3690133C3614B68DB6A54
:105930009C4201D901239C460B6A1B68002B10D0A6
:105940000B6ADB68DB685A68934520D35A6998680C
:10595000DC681E1D846060605068B042B9D154603C
:10596000B7E701235B424B620B6B002B01D0012395
:105970009C466046F0BCBB46B246A946A046F0BD78
:105980000B6ADB681B684B6292E75060B3E74A62C0
:10599000EAE7C046A40F0020240F0020F8B5CE4649
:1059A00047469846930080B5070018000D009946B9
:1059B00001F038FC061E00D1C2E0682001F032FC84
:1059C000041E00D1C3E068220021FCF765FA4846B6
:1059D00007230438266336189E43002D5FD03423F6
:1059E0002A78E2542B78002B56D035236A78E2547B
:1059F0006B78002B50D03623AA78E254AB78002B7A
:105A00004AD03723EA78E254EB78002B44D038238D
:105A10002A79E2542B79002B3ED039236A79E2545B
:105A20006B79002B38D03A23AA79E254AB79002B5A
:105A300032D03B23EA79E254EB79002B2CD03C2383
:105A40002A7AE2542B7A002B26D03D236A7AE2543C
:105A50006B7A002B20D03E23AA7AE254AB7A002B3B
:105A60001AD03F23EA7AE254EB7A002B14D0402379
:105A70002A7BE2542B7B002B0ED041236A7BE2541D
:105A80006B7B002B08D04223AA7BE254AB7B002B1C
:105A900002D04323EA7BE25443230022E254089DD0
:105AA000042D5AD8231D1800E562994601F0AEFC7A
:105AB0002000183001F0AAFC05235D1B4246390086
:105AC00030002461A561646201F0ECFB099B206059
:105AD000002B00D01C6001F005FC394D394EAB693C
